:020000040000FA
:030000000200D724
:030013000204AF35
:1000830002046F00000080FBE4900200788579028F
:100093008002F0A3D8FCD9FA7A847B039001077815
:1000A3002779018015E493A3AD82AE838A828B8383
:1000B300F0A3AA82AB838D828E83D8E9D9E77582B8
:1000C3002075830B74001200E975828675830074B2
:1000D300001200E975D0007581BF750E00750F021F
:1000E300759F0002008BC09FF59FE473D09F22D0C1
:1000F30083D082C09FE493C0E0740193C0E0740294
:1001030093F59F22FF0000000000000000000000A4
:100113004961C7EBCAE4C8EB67BBF1C8A1CEC2B65D
:10012300C82E2E2E2E2E2E0A00311200F2B60400F7
:100133001200F26E05001200F2C605001200F2F37F
:1001430006001200F28607001200F22208001200D5
:10015300F23208001200F2DD08001200F2F108008A
:100163001200F2020E001200F2360E001200F2D656
:100173000E001200F2940D001200F2A80D001200FE
:10018300F2C90D001200F2EA0D001200F2CC0E00CB
:100193001200F2D10E001200F2180D001200F2400C
:1001A3000D001200F26D0D001200F205090012009D
:1001B300F23109001200F24109001200F25709005E
:1001C3001200F26F09001200F28709001200F2B167
:1001D30009001200F2D609001200F2E7090012002A
:1001E300F2F009001200F2F909001200F20E0A00FF
:1001F3001200F2230A001200F2440A001200F2571E
:100203000A001200F2A50E001200F2750B00120094
:10021300F2950B001200F2BE0B001200F2DF0B008E
:100223001200F2FE0B001200F2640C001200F25AEC
:100233000A001200F2630A001200F2820C0012009C
:10024300F2A20C001200F2AD0C001200F2D60C0068
:100253001200F20D0D001200F25F0E00CAC0E0E6BC
:10026300F0A308DAFAD0E0FA22CAC0E0E0A3C5821C
:10027300CCC582C583CDC583F0A3C582CCC582C559
:1002830083CDC583DAE6D0E0CA22250E10AF08F588
:100293000E400C150F8008F50E4002150FD2AF2249
:1002A30000C0D0250E10AF08F50E500C050F8008C6
:1002B300F50E5002050FD2AFD0D022250EF58210D5
:1002C300AF08F50E400C150F8008F50E4002150F10
:1002D300D2AF850F8322250EF582E4350FF58322F5
:1002E300250EFAE4350FFB22250EFCE4350FFD2223
:1002F300E473250EC582C0E0E50F34FFC583C0E07B
:10030300E50EC3958224F810AF0885830F85820E0E
:10031300800885830F85820ED2AFCEF0A3E520F04F
:10032300A37808E608F0A3DEFAEFF0A3E58124FA48
:10033300F8E608F0A3E608F0A3E608F0A30808E649
:1003430008F0A3E608F0A315811581D0E0FED0E004
:10035300F8158115811581E8C0E0EEC0E022850F14
:1003630083850E82E0A3FEE0A3F5207808E0A3F6E0
:1003730008DFFAE0A3FFE0A3C0E0E0A3C0E0E0A34E
:10038300C0E0E0A3C0E0E0A3C0E010AF0885820EA8
:1003930085830F800885820E85830FD2AFD083D0EB
:1003A300820200EFC0D0250EC582C0E0E50F34FF06
:1003B300C583C0E0E50EC3958224F310AF0885839F
:1003C3000F85820E800885830F85820ED2AFC8F019
:1003D300A3E9F0A3EAF0A3EBF0A37908E709F0A3FC
:1003E300D8FAECF0A3EDF0A3EEF0A3EFF0A3D0E086
:1003F300F0A3D0E0F0A3D0E0F0A3E520F0A3E5F074
:10040300F0A322850F83850E82E0C0E0A3E0F9A369
:10041300E0FAA3E0FBA37808E0F608A3DFFAE0FC28
:10042300A3E0FDA3E0FEA3E0FFA3E0C0E0A3E0C0E0
:10043300E0A3E0F5D0A3E0F520A3E0A3F5F010AF2F
:100443000885830F85820E800885830F85820ED2EF
:10045300AFD082D083D0E0F8D0E03274028000C005
:10046300E0F4041202BED0E012025F22C0E074F294
:100473001203A7A2AFE433FEC2AFE5E9A2E6502020
:100483009002FCE0F8A3E0F9E849600E9002FCE07A
:10049300F8A3E0F58388821202F3759B0053E9BF4A
:1004A300EEF8EEA2E092AF7F01020406C0D0C28B49
:1004B300D0D03274F71202F5E9FEEAF8EBF9E8FA64
:1004C300E9FB740B2EC0E08A828B83D0E0F09002AC
:1004D30007E0F8A3E0F5838882A3A3A3A3A3E060C6
:1004E3000678617988800478417988E8C0E08A8257
:1004F3008B83A3D0E0F0E4C9F8E8C0E08A828B8361
:10050300A3A3D0E0F0900200E0C0E08A828B83A333
:10051300A3A3D0E0F0900207E0F8A3E0F58388827C
:10052300A3A3E0F8A3E0F98A828B83A3A3A3A3E8A0
:10053300F0A3E9F08A828B83A3A3A3A3A3A3ECF084
:10054300A3EDF0900207E0F8A3E0F5838882E0F8DA
:10055300A3E0F98A828B83A3A3A3A3A3A3A3A3E802
:10056300F0A3E9F0790A7F0102036174F71202F53F
:10057300ECFEEDFF8908A908EAFCEBFD7A097B0292
:1005830012012DE9FD7C00802BECF87900EE28F5B3
:1005930082EF39F583E0C0E0EDFA7B00ECF87900F7
:1005A300EA28F8EB39F9740928F582740239F583DE
:1005B300D0E0F00CECC3950840CFED2508F97F019E
:1005C30002036174F71202F57E7C7F021201E712C7
:1005D300018D7901EEFAEFFB1201CF8E828F83E05A
:1005E300C2E7F08E828F83E0640570528E828F8320
:1005F300E0F97A7D7B021201CF8E828F83A3E0A282
:10060300E55004D2F08002C2F0A2F0E43390038CF0
:10061300F07880790288828983A3E0A2E74003020D
:1006230006E88E828F83A3A3A3E0F8900200E0681C
:1006330060030206E89002017401F00206E88E826C
:100643008F83E024F5900389F08E828F83E0F97A1B
:100653007D7B021201CF8E828F83A3E0A2E550043B
:10066300D2F08002C2F0A2F0E43390038CF08E82C9
:100673008F83A3A3A3A3A3A3A3A3E0F8A3E0F99069
:100683000385E8F0A3E9F090038A7486F0A374026B
:10069300F0900389E0F83395E0F990038AE028F8B5
:1006A300A3E039F988828983E090038DF0888289F9
:1006B30083A3E0A2E75022900384E0F88E828F8325
:1006C300A3A3A3E06860128E828F83A3E054DF6448
:1006D30041700690038E7401F08E828F83A3A3A3CF
:1006E300E0900384F01201931201ED7F0102036194
:1006F30074F71202F5EAFEEBFF1201ABE964017035
:100703000479018079120193900207EEF0A3EFF0D0
:1007130090038A7400F0A37400F09002027401F055
:100723007C007D007E007F00900203ECF0A3EDF0DF
:10073300A3EEF0A3EFF0900207E0F8A3E0F58388BF
:1007430082A3A3A3A3E0F91201B7900207E0F8A3E1
:10075300E0F5838882E0FAA3E0FB1201BD90020773
:10076300E0F8A3E0F5838882A3A3E0FAA3E0FB12F9
:1007730001C37A397B011201F312018D79007F01E4
:1007830002036174F41202F5EAFEEBFF8C0A8D0B8F
:100793008909900202E070031201DBE509C3946743
:1007A300500585090880037508678508091201F952
:1007B3001201E7A909AC0AAD0BEEFAEFFB12013304
:1007C300E9F97A097B021201C91201ED1201D5E997
:1007D30060027E01900207E0F8A3E0F5838882A31C
:1007E300A3A3A3A3E0601C9002017400F07A4A7BE8
:1007F3000212019F900201E0600474008002740100
:10080300FE80027E00900202E070031201E1EE70AE
:1008130007900200E02401F0EEF97F04020361C0B7
:1008230082C08390038EE0F9D083D0820200EF74FC
:10083300F21202F58A088B09890AECFEEDFF120118
:1008430093900389E0FA3395E0FBA80A7900C3EAA1
:1008530098EB99A2D265D033500D900389E0F50C43
:100863003395E0F50D8006850A0C750D00780C12A2
:10087300045E90038AE0FCA3E0FDAA08AB09120220
:100883005974021202A3EE4F60201201B1E9F890ED
:10089300038DE0FA3395E0FB7900EAC398F8EB990E
:1008A300F98E828F83E8F0A3E9F090038E7400F051
:1008B30012018D900389E0FA3395E0FBA80A7900D1
:1008C300C3EA98EB99A2D265D0335007900389E02D
:1008D300F98002A90A7F06020361C082C0839002E5
:1008E300027401F01201DBD083D0820200EFC082D8
:1008F300C0839002027400F01201E1D083D082021F
:1009030000EFC082C083906189E04460F09061FA97
:100913007409F09061B27415F09061AE7400F01236
:1009230001FF1201ED7900D083D0820200EFC08273
:10093300C083900390E0F9D083D0820200EFC0829D
:10094300C08375F005E9A424D490618FF0D083D0DF
:10095300820200EFC082C083EA906174F0E4CBFAB4
:10096300EA906175F0D083D0820200EFC082C08329
:10097300EA906172F0E4CBFAEA906173F0D083D02D
:10098300820200EFC082C08375E1EE7591FD7800AD
:100993008010E8FC7D00EA2CF582EB3DF583E0F561
:1009A300D908E8C39940EBD083D0820200EFC0821C
:1009B300C0838015E5D9C0E08A828B83D0E0F08ABA
:1009C300828B83A3AA82AB8319E970E8D083D08298
:1009D3000200EF75E1E9E591A2E150FA7591FD7925
:1009E300000200EF75E1EC75E1E30200EF75E1EF62
:1009F30075E1EC0200EFC082C0839061A3E0C2E620
:100A0300F0539AFED083D0820200EFC082C083905D
:100A130061A3E0D2E6F0439A01D083D0820200EFD3
:100A2300C082C083A2AFE433F8C2AF9002FCEAF005
:100A3300A3EBF0E8F9E8A2E092AFD083D082020002
:100A4300EFC082C083906193E0542270F8D083D0CA
:100A5300820200EF0200EF53F5FE53FFFE0200EFA8
:100A6300C082C08374E812028D900391AC0EAD0F67
:100A7300740112026C90039274011202EB74171248
:100A8300026C12015D7A017B001201817C177D00EB
:100A930074011202E312024D7AF47B011201A59054
:100AA30003A9E064317008120253E99003A9F0909E
:100AB30003A9E0C0E0850E82850F83D0E0F07901C1
:100AC300AC0EAD0F7AFF7BFF120145E97AF47B018F
:100AD3001201A51201577AF47B011201A512014BF1
:100AE300E960FA7C007D0079807A047B031201516E
:100AF300E9F87900C3E89401E99400A2D265D03300
:100B0300400E7A017B0012017B7A047B03120247B9
:100B130012015D7AF47B011201A5020A8812019980
:100B230012022F12023B1201751202111202051258
:100B330001871201ABE96401700312016F90030096
:100B43007402F0A37420F09003027413F090030373
:100B53007401F09002FE7430F0A37425F07AFE7BEA
:100B63000212013FE96401700312016F12023502A0
:100B730000EF800B0000000000000000000000EA0E
:100B8300F8EBF9E824FFFAE934FFFBE84970E502E2
:100B930000EFC082C08353F3BF43FD4053F37F4351
:100BA300FD80D2867A0A7B0012020BD2877A0A7BF7
:100BB3000012020BD083D0820200EFC082C083D226
:100BC30086D2877A057B0012020BC2867A057B00E8
:100BD30012020BC287D083D0820200EFC082C0838F
:100BE300C286D2877A057B0012020BD2867A057BF6
:100BF3000012020BD083D0820200EF74F71202F5C9
:100C0300E9FFC2877E008020C2867A057B0012023C
:100C13000BD2877A057B0012020BC2877A057B0011
:100C230012020BEFC333FF0EEEC394085009EFA279
:100C3300E750D5D28680D37A027B0012020BD2868C
:100C4300D2877A027B0012020BA2865004790180BC
:100C53000BC2877A327B0012020B79007F010203F9
:100C630061EAF8EBF9E824FFFAE934FFFBE84960AD
:100C73000B7800E8C394C850E80880F70200EF75CA
:100C8300F10075F33C53FF3F43868043C50B43C2DA
:100C9300D8C2E9C28BD2AFD2AA4386400200EF8901
:100CA300C1A2E950FCC2E90200EF74F71202F5EAAF
:100CB300FEEBFF80128E828F83E0F91202418E8257
:100CC3008F83A3AE82AF838E828F83E070E77F0131
:100CD30002036174F71202F578007900801B8A829F
:100CE3008B83E0F5C18A828B83A3AA82AB83A2E9BB
:100CF30050FCC2E908E8700109C3E89CE99DA2D24F
:100D030065D03340D97F01020361A28B50FCA9C196
:100D1300C28B0200EFC082C0837900120169E960CF
:100D23001079011201637900120169E9600312016C
:100D33006F7900120163D083D0820200EFEBC313FB
:100D4300FBEA13FAEAF8EBF9E824FFFAE934FFFBCC
:100D5300E8496013000000000000000000000000EC
:100D6300000000000080DD0200EF74F71202F5EAD4
:100D7300FEEBFFEEF8EFF9E824FFFEE934FFFFE8AE
:100D83004960097AE87B0312019F80E77F01020330
:100D93006153F4F243FE0D53F5FE43FF0143900DFF
:100DA300D2A00200EFEAA2E05002D290EA5402601D
:100DB30003859090EA54046003859090EA54086098
:100DC30002D2A00200EFEAA2E05002C290EA54026B
:100DD3006003859090EA54046003859090EA540878
:100DE3006002C2A00200EF43F4C043F10253F5DFF7
:100DF30075F8C075FC0A75FA3B85FBFB0200EFE54D
:100E0300C65480F853BEFBE59DA2E550FAE59DA2CA
:100E1300E240F4007401697007744948F5C680051F
:100E2300E9700288C6AAC6A89EEA6870FA43BE049F
:100E33000200EFE9FAE59EA2E640047901801AEA8E
:100E4300700553C67F800874016A700343C680A986
:100E5300C6A89EE96870FA79000200EF74F61202E0
:100E6300F5EAF8EBF9740A1202D9E0FEA3E0FF8079
:100E7300188C828D83E088828983F0A3A882A9835A
:100E83008C828D83A3AC82AD838E088F09E5082401
:100E9300FF1EE50934FFFFE508450970D47F020210
:100EA3000361C082C08312021112021779801202F9
:100EB30023E979FE120223E912021D7A587B0212FA
:100EC3000229D083D0820200EFD2AF0200EFC2AF7B
:050ED3000200EF80FEAB
:04000005000000D720
:00000001FF
